{
  "contractName": "bank",
  "abi": [
    {
      "constant": true,
      "inputs": [],
      "name": "_id",
      "outputs": [
        {
          "name": "",
          "type": "uint256"
        }
      ],
      "payable": false,
      "stateMutability": "view",
      "type": "function"
    },
    {
      "constant": true,
      "inputs": [],
      "name": "name",
      "outputs": [
        {
          "name": "",
          "type": "string"
        }
      ],
      "payable": false,
      "stateMutability": "view",
      "type": "function"
    },
    {
      "constant": true,
      "inputs": [
        {
          "name": "",
          "type": "address"
        }
      ],
      "name": "release",
      "outputs": [
        {
          "name": "",
          "type": "bool"
        }
      ],
      "payable": false,
      "stateMutability": "view",
      "type": "function"
    },
    {
      "constant": true,
      "inputs": [
        {
          "name": "",
          "type": "address"
        }
      ],
      "name": "balances",
      "outputs": [
        {
          "name": "",
          "type": "uint256"
        }
      ],
      "payable": false,
      "stateMutability": "view",
      "type": "function"
    },
    {
      "constant": true,
      "inputs": [],
      "name": "decimals",
      "outputs": [
        {
          "name": "",
          "type": "uint8"
        }
      ],
      "payable": false,
      "stateMutability": "view",
      "type": "function"
    },
    {
      "constant": true,
      "inputs": [],
      "name": "WAITTIMEUNTILWITHDRAWORTRANSFER",
      "outputs": [
        {
          "name": "",
          "type": "uint256"
        }
      ],
      "payable": false,
      "stateMutability": "view",
      "type": "function"
    },
    {
      "constant": true,
      "inputs": [
        {
          "name": "",
          "type": "address"
        },
        {
          "name": "",
          "type": "address"
        }
      ],
      "name": "allowed",
      "outputs": [
        {
          "name": "",
          "type": "uint256"
        }
      ],
      "payable": false,
      "stateMutability": "view",
      "type": "function"
    },
    {
      "constant": true,
      "inputs": [],
      "name": "totalsupply",
      "outputs": [
        {
          "name": "",
          "type": "uint256"
        }
      ],
      "payable": false,
      "stateMutability": "view",
      "type": "function"
    },
    {
      "constant": true,
      "inputs": [],
      "name": "owner",
      "outputs": [
        {
          "name": "",
          "type": "address"
        }
      ],
      "payable": false,
      "stateMutability": "view",
      "type": "function"
    },
    {
      "constant": true,
      "inputs": [
        {
          "name": "",
          "type": "uint256"
        }
      ],
      "name": "partner",
      "outputs": [
        {
          "name": "",
          "type": "address"
        }
      ],
      "payable": false,
      "stateMutability": "view",
      "type": "function"
    },
    {
      "constant": true,
      "inputs": [],
      "name": "symbol",
      "outputs": [
        {
          "name": "",
          "type": "string"
        }
      ],
      "payable": false,
      "stateMutability": "view",
      "type": "function"
    },
    {
      "constant": true,
      "inputs": [
        {
          "name": "",
          "type": "address"
        }
      ],
      "name": "project_address",
      "outputs": [
        {
          "name": "",
          "type": "uint256"
        }
      ],
      "payable": false,
      "stateMutability": "view",
      "type": "function"
    },
    {
      "constant": true,
      "inputs": [
        {
          "name": "",
          "type": "uint256"
        }
      ],
      "name": "contents",
      "outputs": [
        {
          "name": "_id",
          "type": "uint256"
        },
        {
          "name": "_introduce",
          "type": "string"
        },
        {
          "name": "project_party",
          "type": "address"
        },
        {
          "name": "demand",
          "type": "uint256"
        },
        {
          "name": "contract_address",
          "type": "address"
        },
        {
          "name": "permissions",
          "type": "bool"
        }
      ],
      "payable": false,
      "stateMutability": "view",
      "type": "function"
    },
    {
      "constant": true,
      "inputs": [
        {
          "name": "",
          "type": "address"
        }
      ],
      "name": "amount",
      "outputs": [
        {
          "name": "",
          "type": "uint256"
        }
      ],
      "payable": false,
      "stateMutability": "view",
      "type": "function"
    },
    {
      "constant": false,
      "inputs": [
        {
          "name": "newOwner",
          "type": "address"
        }
      ],
      "name": "transferOwnership",
      "outputs": [],
      "payable": false,
      "stateMutability": "nonpayable",
      "type": "function"
    },
    {
      "anonymous": false,
      "inputs": [
        {
          "indexed": false,
          "name": "",
          "type": "address"
        },
        {
          "indexed": false,
          "name": "",
          "type": "uint256"
        }
      ],
      "name": "a",
      "type": "event"
    },
    {
      "anonymous": false,
      "inputs": [
        {
          "indexed": true,
          "name": "previousOwner",
          "type": "address"
        },
        {
          "indexed": true,
          "name": "newOwner",
          "type": "address"
        }
      ],
      "name": "OwnershipTransferred",
      "type": "event"
    },
    {
      "anonymous": false,
      "inputs": [
        {
          "indexed": true,
          "name": "_from",
          "type": "address"
        },
        {
          "indexed": true,
          "name": "_to",
          "type": "address"
        },
        {
          "indexed": false,
          "name": "_value",
          "type": "uint256"
        }
      ],
      "name": "Transfer",
      "type": "event"
    },
    {
      "anonymous": false,
      "inputs": [
        {
          "indexed": true,
          "name": "_owner",
          "type": "address"
        },
        {
          "indexed": true,
          "name": "_spender",
          "type": "address"
        },
        {
          "indexed": false,
          "name": "_value",
          "type": "uint256"
        }
      ],
      "name": "Approval",
      "type": "event"
    },
    {
      "constant": false,
      "inputs": [],
      "name": "investment",
      "outputs": [],
      "payable": true,
      "stateMutability": "payable",
      "type": "function"
    },
    {
      "constant": false,
      "inputs": [
        {
          "name": "introduce",
          "type": "string"
        },
        {
          "name": "num",
          "type": "uint256"
        },
        {
          "name": "_contract",
          "type": "address"
        }
      ],
      "name": "project",
      "outputs": [],
      "payable": false,
      "stateMutability": "nonpayable",
      "type": "function"
    },
    {
      "constant": false,
      "inputs": [
        {
          "name": "id",
          "type": "uint256"
        }
      ],
      "name": "recognition",
      "outputs": [],
      "payable": false,
      "stateMutability": "nonpayable",
      "type": "function"
    },
    {
      "constant": false,
      "inputs": [],
      "name": "withdrawals",
      "outputs": [],
      "payable": false,
      "stateMutability": "nonpayable",
      "type": "function"
    },
    {
      "constant": false,
      "inputs": [],
      "name": "profit",
      "outputs": [],
      "payable": true,
      "stateMutability": "payable",
      "type": "function"
    },
    {
      "constant": false,
      "inputs": [],
      "name": "Share_out_bonus",
      "outputs": [],
      "payable": false,
      "stateMutability": "nonpayable",
      "type": "function"
    },
    {
      "constant": true,
      "inputs": [],
      "name": "retbal",
      "outputs": [
        {
          "name": "",
          "type": "uint256"
        }
      ],
      "payable": false,
      "stateMutability": "view",
      "type": "function"
    },
    {
      "constant": true,
      "inputs": [],
      "name": "contents_length",
      "outputs": [
        {
          "name": "",
          "type": "uint256"
        }
      ],
      "payable": false,
      "stateMutability": "view",
      "type": "function"
    },
    {
      "constant": true,
      "inputs": [],
      "name": "totalSupply",
      "outputs": [
        {
          "name": "",
          "type": "uint256"
        }
      ],
      "payable": false,
      "stateMutability": "view",
      "type": "function"
    },
    {
      "constant": true,
      "inputs": [
        {
          "name": "_owner",
          "type": "address"
        }
      ],
      "name": "balanceOf",
      "outputs": [
        {
          "name": "",
          "type": "uint256"
        }
      ],
      "payable": false,
      "stateMutability": "view",
      "type": "function"
    },
    {
      "constant": false,
      "inputs": [
        {
          "name": "_to",
          "type": "address"
        },
        {
          "name": "_value",
          "type": "uint256"
        }
      ],
      "name": "transfer",
      "outputs": [
        {
          "name": "success",
          "type": "bool"
        }
      ],
      "payable": false,
      "stateMutability": "nonpayable",
      "type": "function"
    },
    {
      "constant": false,
      "inputs": [
        {
          "name": "_from",
          "type": "address"
        },
        {
          "name": "_to",
          "type": "address"
        },
        {
          "name": "_value",
          "type": "uint256"
        }
      ],
      "name": "transferFrom",
      "outputs": [
        {
          "name": "",
          "type": "bool"
        }
      ],
      "payable": false,
      "stateMutability": "nonpayable",
      "type": "function"
    },
    {
      "constant": false,
      "inputs": [
        {
          "name": "_spender",
          "type": "address"
        },
        {
          "name": "_value",
          "type": "uint256"
        }
      ],
      "name": "approve",
      "outputs": [
        {
          "name": "",
          "type": "bool"
        }
      ],
      "payable": false,
      "stateMutability": "nonpayable",
      "type": "function"
    },
    {
      "constant": true,
      "inputs": [
        {
          "name": "_owner",
          "type": "address"
        },
        {
          "name": "_spender",
          "type": "address"
        }
      ],
      "name": "allowance",
      "outputs": [
        {
          "name": "",
          "type": "uint256"
        }
      ],
      "payable": false,
      "stateMutability": "view",
      "type": "function"
    }
  ],
  "bytecode": "0x6080604052336000806101000a81548173ffffffffffffffffffffffffffffffffffffffff021916908373ffffffffffffffffffffffffffffffffffffffff160217905550611f5a806100536000396000f300608060405260043610610175576000357c0100000000000000000000000000000000000000000000000000000000900463ffffffff168063051802371461017a57806306fdde03146101a5578063095ea7b31461023557806318160ddd1461029a57806319165587146102c557806323b872dd1461032057806327e235e3146103a5578063313ce567146103fc5780633655aa8e1461042d5780633760ceb01461044457806345fbfbca1461046f5780635c6581651461047957806363eb1c2a146104f057806366d16cc3146105835780636c47576e1461058d57806370a08231146105b857806372dd529b1461060f5780637f802e2c1461063a5780638da5cb5b146106675780638e9e504b146106be57806395d89b411461072b578063a1aedd41146107bb578063a9059cbb14610812578063ade0e93e14610877578063b5ecf9121461088e578063b9f0bf66146109b3578063cacd7fc514610a0a578063dd62ed3e14610a35578063f2fde38b14610aac575b600080fd5b34801561018657600080fd5b5061018f610aef565b6040518082815260200191505060405180910390f35b3480156101b157600080fd5b506101ba610af5565b6040518080602001828103825283818151815260200191508051906020019080838360005b838110156101fa5780820151818401526020810190506101df565b50505050905090810190601f1680156102275780820380516001836020036101000a031916815260200191505b509250505060405180910390f35b34801561024157600080fd5b50610280600480360381019080803573ffffffffffffffffffffffffffffffffffffffff16906020019092919080359060200190929190505050610b2e565b604051808215151515815260200191505060405180910390f35b3480156102a657600080fd5b506102af610c20565b6040518082815260200191505060405180910390f35b3480156102d157600080fd5b50610306600480360381019080803573ffffffffffffffffffffffffffffffffffffffff169060200190929190505050610c2a565b604051808215151515815260200191505060405180910390f35b34801561032c57600080fd5b5061038b600480360381019080803573ffffffffffffffffffffffffffffffffffffffff169060200190929190803573ffffffffffffffffffffffffffffffffffffffff16906020019092919080359060200190929190505050610c4a565b604051808215151515815260200191505060405180910390f35b3480156103b157600080fd5b506103e6600480360381019080803573ffffffffffffffffffffffffffffffffffffffff169060200190929190505050611070565b6040518082815260200191505060405180910390f35b34801561040857600080fd5b50610411611088565b604051808260ff1660ff16815260200191505060405180910390f35b34801561043957600080fd5b5061044261108d565b005b34801561045057600080fd5b50610459611142565b6040518082815260200191505060405180910390f35b610477611148565b005b34801561048557600080fd5b506104da600480360381019080803573ffffffffffffffffffffffffffffffffffffffff169060200190929190803573ffffffffffffffffffffffffffffffffffffffff169060200190929190505050611210565b6040518082815260200191505060405180910390f35b3480156104fc57600080fd5b50610581600480360381019080803590602001908201803590602001908080601f016020809104026020016040519081016040528093929190818152602001838380828437820191505050505050919291929080359060200190929190803573ffffffffffffffffffffffffffffffffffffffff169060200190929190505050611235565b005b61058b6114b6565b005b34801561059957600080fd5b506105a26114b8565b6040518082815260200191505060405180910390f35b3480156105c457600080fd5b506105f9600480360381019080803573ffffffffffffffffffffffffffffffffffffffff1690602001909291905050506114d7565b6040518082815260200191505060405180910390f35b34801561061b57600080fd5b50610624611520565b6040518082815260200191505060405180910390f35b34801561064657600080fd5b5061066560048036038101908080359060200190929190505050611526565b005b34801561067357600080fd5b5061067c6115bd565b604051808273ffffffffffffffffffffffffffffffffffffffff1673ffffffffffffffffffffffffffffffffffffffff16815260200191505060405180910390f35b3480156106ca57600080fd5b506106e9600480360381019080803590602001909291905050506115e2565b604051808273ffffffffffffffffffffffffffffffffffffffff1673ffffffffffffffffffffffffffffffffffffffff16815260200191505060405180910390f35b34801561073757600080fd5b50610740611620565b6040518080602001828103825283818151815260200191508051906020019080838360005b83811015610780578082015181840152602081019050610765565b50505050905090810190601f1680156107ad5780820380516001836020036101000a031916815260200191505b509250505060405180910390f35b3480156107c757600080fd5b506107fc600480360381019080803573ffffffffffffffffffffffffffffffffffffffff169060200190929190505050611659565b6040518082815260200191505060405180910390f35b34801561081e57600080fd5b5061085d600480360381019080803573ffffffffffffffffffffffffffffffffffffffff16906020019092919080359060200190929190505050611671565b604051808215151515815260200191505060405180910390f35b34801561088357600080fd5b5061088c611908565b005b34801561089a57600080fd5b506108b960048036038101908080359060200190929190505050611b9c565b60405180878152602001806020018673ffffffffffffffffffffffffffffffffffffffff1673ffffffffffffffffffffffffffffffffffffffff1681526020018581526020018473ffffffffffffffffffffffffffffffffffffffff1673ffffffffffffffffffffffffffffffffffffffff16815260200183151515158152602001828103825287818151815260200191508051906020019080838360005b83811015610973578082015181840152602081019050610958565b50505050905090810190601f1680156109a05780820380516001836020036101000a031916815260200191505b5097505050505050505060405180910390f35b3480156109bf57600080fd5b506109f4600480360381019080803573ffffffffffffffffffffffffffffffffffffffff169060200190929190505050611ccc565b6040518082815260200191505060405180910390f35b348015610a1657600080fd5b50610a1f611ce4565b6040518082815260200191505060405180910390f35b348015610a4157600080fd5b50610a96600480360381019080803573ffffffffffffffffffffffffffffffffffffffff169060200190929190803573ffffffffffffffffffffffffffffffffffffffff169060200190929190505050611cf1565b6040518082815260200191505060405180910390f35b348015610ab857600080fd5b50610aed600480360381019080803573ffffffffffffffffffffffffffffffffffffffff169060200190929190505050611d78565b005b60025481565b6040805190810160405280600c81526020017f526561436861696e436f696e000000000000000000000000000000000000000081525081565b600081600860003373ffffffffffffffffffffffffffffffffffffffff1673ffffffffffffffffffffffffffffffffffffffff16815260200190815260200160002060008573ffffffffffffffffffffffffffffffffffffffff1673ffffffffffffffffffffffffffffffffffffffff168152602001908152602001600020819055508273ffffffffffffffffffffffffffffffffffffffff163373ffffffffffffffffffffffffffffffffffffffff167f8c5be1e5ebec7d5bd14f71427d1e84f3dd0314c0f7b2291e5b200ac8c7c3b925846040518082815260200191505060405180910390a36001905092915050565b6000600154905090565b600a6020528060005260406000206000915054906101000a900460ff1681565b600081600860008673ffffffffffffffffffffffffffffffffffffffff1673ffffffffffffffffffffffffffffffffffffffff16815260200190815260200160002060003373ffffffffffffffffffffffffffffffffffffffff1673ffffffffffffffffffffffffffffffffffffffff1681526020019081526020016000205410158015610d17575081600760008673ffffffffffffffffffffffffffffffffffffffff1673ffffffffffffffffffffffffffffffffffffffff1681526020019081526020016000205410155b8015610d66575042600354600460008773ffffffffffffffffffffffffffffffffffffffff1673ffffffffffffffffffffffffffffffffffffffff168152602001908152602001600020540111155b8015610d9e57503073ffffffffffffffffffffffffffffffffffffffff168373ffffffffffffffffffffffffffffffffffffffff1614155b8015610dd75750600073ffffffffffffffffffffffffffffffffffffffff168373ffffffffffffffffffffffffffffffffffffffff1614155b1515610de257600080fd5b610e2b600760008573ffffffffffffffffffffffffffffffffffffffff1673ffffffffffffffffffffffffffffffffffffffff1681526020019081526020016000205483611e52565b600760008573ffffffffffffffffffffffffffffffffffffffff1673ffffffffffffffffffffffffffffffffffffffff16815260200190815260200160002081905550610eb7600760008673ffffffffffffffffffffffffffffffffffffffff1673ffffffffffffffffffffffffffffffffffffffff1681526020019081526020016000205483611e70565b600760008673ffffffffffffffffffffffffffffffffffffffff1673ffffffffffffffffffffffffffffffffffffffff16815260200190815260200160002081905550610f80600860008673ffffffffffffffffffffffffffffffffffffffff1673ffffffffffffffffffffffffffffffffffffffff16815260200190815260200160002060003373ffffffffffffffffffffffffffffffffffffffff1673ffffffffffffffffffffffffffffffffffffffff1681526020019081526020016000205483611e70565b600860008673ffffffffffffffffffffffffffffffffffffffff1673ffffffffffffffffffffffffffffffffffffffff16815260200190815260200160002060003373ffffffffffffffffffffffffffffffffffffffff1673ffffffffffffffffffffffffffffffffffffffff168152602001908152602001600020819055508273ffffffffffffffffffffffffffffffffffffffff168473ffffffffffffffffffffffffffffffffffffffff167fddf252ad1be2c89b69c2b068fc378daa952ba7f163c4a11628f55a4df523b3ef846040518082815260200191505060405180910390a3600190509392505050565b60076020528060005260406000206000915090505481565b601281565b600080600760003373ffffffffffffffffffffffffffffffffffffffff1673ffffffffffffffffffffffffffffffffffffffff168152602001908152602001600020549150813073ffffffffffffffffffffffffffffffffffffffff16318115156110f457fe5b0490503373ffffffffffffffffffffffffffffffffffffffff166108fc829081150290604051600060405180830381858888f1935050505015801561113d573d6000803e3d6000fd5b505050565b60035481565b34600960003373ffffffffffffffffffffffffffffffffffffffff1673ffffffffffffffffffffffffffffffffffffffff16815260200190815260200160002081905550670de0b6b3a76400006103e834028115156111a357fe5b04600760003373ffffffffffffffffffffffffffffffffffffffff1673ffffffffffffffffffffffffffffffffffffffff16815260200190815260200160002081905550670de0b6b3a76400006103e834028115156111fe57fe5b04600160008282540192505081905550565b6008602052816000526040600020602052806000526040600020600091509150505481565b6000600a60003373ffffffffffffffffffffffffffffffffffffffff1673ffffffffffffffffffffffffffffffffffffffff16815260200190815260200160002060009054906101000a900460ff1615151561129057600080fd5b6001600560c06040519081016040528060025481526020018781526020013373ffffffffffffffffffffffffffffffffffffffff1681526020018681526020018573ffffffffffffffffffffffffffffffffffffffff1681526020016000151581525090806001815401808255809150509060018203906000526020600020906005020160009091929091909150600082015181600001556020820151816001019080519060200190611344929190611e89565b5060408201518160020160006101000a81548173ffffffffffffffffffffffffffffffffffffffff021916908373ffffffffffffffffffffffffffffffffffffffff1602179055506060820151816003015560808201518160040160006101000a81548173ffffffffffffffffffffffffffffffffffffffff021916908373ffffffffffffffffffffffffffffffffffffffff16021790555060a08201518160040160146101000a81548160ff021916908315150217905550505003905080600b60003373ffffffffffffffffffffffffffffffffffffffff1673ffffffffffffffffffffffffffffffffffffffff168152602001908152602001600020819055506001600a60003373ffffffffffffffffffffffffffffffffffffffff1673ffffffffffffffffffffffffffffffffffffffff16815260200190815260200160002060006101000a81548160ff02191690831515021790555060026000815480929190600101919050555050505050565b565b60003073ffffffffffffffffffffffffffffffffffffffff1631905090565b6000600760008373ffffffffffffffffffffffffffffffffffffffff1673ffffffffffffffffffffffffffffffffffffffff168152602001908152602001600020549050919050565b60015481565b6000809054906101000a900473ffffffffffffffffffffffffffffffffffffffff1673ffffffffffffffffffffffffffffffffffffffff163373ffffffffffffffffffffffffffffffffffffffff1614151561158157600080fd5b600160058281548110151561159257fe5b906000526020600020906005020160040160146101000a81548160ff02191690831515021790555050565b6000809054906101000a900473ffffffffffffffffffffffffffffffffffffffff1681565b6006818154811015156115f157fe5b906000526020600020016000915054906101000a900473ffffffffffffffffffffffffffffffffffffffff1681565b6040805190810160405280600381526020017f524343000000000000000000000000000000000000000000000000000000000081525081565b600b6020528060005260406000206000915090505481565b600081600760003373ffffffffffffffffffffffffffffffffffffffff1673ffffffffffffffffffffffffffffffffffffffff1681526020019081526020016000205410158015611705575042600354600460003373ffffffffffffffffffffffffffffffffffffffff1673ffffffffffffffffffffffffffffffffffffffff168152602001908152602001600020540111155b801561173d57503073ffffffffffffffffffffffffffffffffffffffff168373ffffffffffffffffffffffffffffffffffffffff1614155b80156117765750600073ffffffffffffffffffffffffffffffffffffffff168373ffffffffffffffffffffffffffffffffffffffff1614155b151561178157600080fd5b6117ca600760003373ffffffffffffffffffffffffffffffffffffffff1673ffffffffffffffffffffffffffffffffffffffff1681526020019081526020016000205483611e70565b600760003373ffffffffffffffffffffffffffffffffffffffff1673ffffffffffffffffffffffffffffffffffffffff16815260200190815260200160002081905550611856600760008573ffffffffffffffffffffffffffffffffffffffff1673ffffffffffffffffffffffffffffffffffffffff1681526020019081526020016000205483611e52565b600760008573ffffffffffffffffffffffffffffffffffffffff1673ffffffffffffffffffffffffffffffffffffffff168152602001908152602001600020819055508273ffffffffffffffffffffffffffffffffffffffff163373ffffffffffffffffffffffffffffffffffffffff167fddf252ad1be2c89b69c2b068fc378daa952ba7f163c4a11628f55a4df523b3ef846040518082815260200191505060405180910390a36001905092915050565b600080600115156005600b60003373ffffffffffffffffffffffffffffffffffffffff1673ffffffffffffffffffffffffffffffffffffffff1681526020019081526020016000205481548110151561195d57fe5b906000526020600020906005020160040160149054906101000a900460ff16151514151561198a57600080fd5b6005600b60003373ffffffffffffffffffffffffffffffffffffffff1673ffffffffffffffffffffffffffffffffffffffff168152602001908152602001600020548154811015156119d857fe5b906000526020600020906005020160040160009054906101000a900473ffffffffffffffffffffffffffffffffffffffff1691506005600b60003373ffffffffffffffffffffffffffffffffffffffff1673ffffffffffffffffffffffffffffffffffffffff16815260200190815260200160002054815481101515611a5a57fe5b90600052602060002090600502016003015490507fa044b0702646492ae2bc0794ded6df923f36d26fccf23d607f5da7df6bbabbe78282604051808373ffffffffffffffffffffffffffffffffffffffff1673ffffffffffffffffffffffffffffffffffffffff1681526020018281526020019250505060405180910390a18173ffffffffffffffffffffffffffffffffffffffff166108fc829081150290604051600060405180830381858888f19350505050158015611b1f573d6000803e3d6000fd5b5060006005600b60003373ffffffffffffffffffffffffffffffffffffffff1673ffffffffffffffffffffffffffffffffffffffff16815260200190815260200160002054815481101515611b7057fe5b906000526020600020906005020160040160146101000a81548160ff0219169083151502179055505050565b600581815481101515611bab57fe5b9060005260206000209060050201600091509050806000015490806001018054600181600116156101000203166002900480601f016020809104026020016040519081016040528092919081815260200182805460018160011615610100020316600290048015611c5d5780601f10611c3257610100808354040283529160200191611c5d565b820191906000526020600020905b815481529060010190602001808311611c4057829003601f168201915b5050505050908060020160009054906101000a900473ffffffffffffffffffffffffffffffffffffffff16908060030154908060040160009054906101000a900473ffffffffffffffffffffffffffffffffffffffff16908060040160149054906101000a900460ff16905086565b60096020528060005260406000206000915090505481565b6000600580549050905090565b6000600860008473ffffffffffffffffffffffffffffffffffffffff1673ffffffffffffffffffffffffffffffffffffffff16815260200190815260200160002060008373ffffffffffffffffffffffffffffffffffffffff1673ffffffffffffffffffffffffffffffffffffffff16815260200190815260200160002054905092915050565b6000809054906101000a900473ffffffffffffffffffffffffffffffffffffffff1673ffffffffffffffffffffffffffffffffffffffff163373ffffffffffffffffffffffffffffffffffffffff16141515611dd357600080fd5b600073ffffffffffffffffffffffffffffffffffffffff168173ffffffffffffffffffffffffffffffffffffffff1614151515611e0f57600080fd5b806000806101000a81548173ffffffffffffffffffffffffffffffffffffffff021916908373ffffffffffffffffffffffffffffffffffffffff16021790555050565b6000808284019050838110151515611e6657fe5b8091505092915050565b6000828211151515611e7e57fe5b818303905092915050565b828054600181600116156101000203166002900490600052602060002090601f016020900481019282601f10611eca57805160ff1916838001178555611ef8565b82800160010185558215611ef8579182015b82811115611ef7578251825591602001919060010190611edc565b5b509050611f059190611f09565b5090565b611f2b91905b80821115611f27576000816000905550600101611f0f565b5090565b905600a165627a7a723058204725c4afada39462536516765e834e76bc3a142b597fd711a3cbac083b3fa7f80029",
  "source": "pragma solidity ^0.4.21;\n\n\n/**\n * @title Ownable\n * @dev The Ownable contract has an owner address, and provides basic authorization control\n * functions, this simplifies the implementation of \"user permissions\".\n */\n\ncontract Ownable {\n  address public owner;\n\n  event OwnershipTransferred(address indexed previousOwner, address indexed newOwner);\n\n  /**\n   * @dev The isOwner constructor sets the original `owner` of the contract to the sender\n   * account.\n   */\n  function Ownable() public { //\n    owner = msg.sender;\n  }\n\n\n  /**\n   * @dev Throws if called by any account other than the owner.\n   */\n  modifier onlyOwner() {\n    require(msg.sender == owner); //\n    _;\n  }\n\n\n  /**\n   * @dev Allows the current owner to transfer control of the contract to a newOwner.\n   * @param newOwner The address to transfer ownership to.\n   */\n  function transferOwnership(address newOwner) public onlyOwner {//\n    require(newOwner != address(0));\n\n    owner = newOwner;\n  }\n\n}\n\n\ncontract ERC20 {\n\tfunction totalSupply() constant public returns (uint supply);\n\tfunction balanceOf(address _owner) constant public returns (uint balance);\n\tfunction transfer(address _to, uint _value) public returns (bool success);\n\tfunction transferFrom(address _from, address _to, uint _value) public returns (bool success);\n\tfunction approve(address _spender, uint _value) public returns (bool success);\n\tfunction allowance(address _owner, address _spender) constant public returns (uint remaining);\n\tevent Transfer(address indexed _from, address indexed _to, uint _value);\n\tevent Approval(address indexed _owner, address indexed _spender, uint _value);\n}\n\ncontract bank is ERC20,Ownable{\n\n    string public constant name = \"ReaChainCoin\";\n\tstring public constant symbol = \"RCC\";\n\tuint8 public constant decimals = 18;\n\tuint256 public totalsupply;\n\tuint256 public _id;\n\tuint256 public WAITTIMEUNTILWITHDRAWORTRANSFER;\n\t\tmapping(address => uint256) contributionTime;\n\t  struct Content\n    {\n        uint256 _id;\n        string _introduce;\n        address project_party;\n        uint256 demand;\n        address contract_address;\n        bool permissions;\n    }\n    Content[] public contents;\n    address[] public partner;\n\tmapping(address => uint256) public balances;\n\tmapping(address => mapping(address => uint256)) public allowed;\n\n    mapping (address => uint256) public amount;\n    mapping (address => bool) public release;\n    mapping (address => uint256) public project_address;\n    event a(address,uint256);\n\n    modifier isone(){\n        require(!release[msg.sender]);\n        _;\n    }\n    function investment() payable {\n        amount[msg.sender] = msg.value;\n\n        balances[msg.sender]=msg.value*1000/10e17;\n        totalsupply+=msg.value*1000/10e17;\n    }\n\n\n    function project(string introduce,uint num,address _contract) isone{\n\n        uint id = contents.push(Content(_id,introduce,msg.sender, num,_contract,false))-1 ;\n        project_address[msg.sender] = id;\n        release[msg.sender] = true;\n        _id++;\n    }\n\n\n    function recognition(uint  id) onlyOwner{\n        contents[id].permissions=true;\n    }\n\n    function withdrawals(){\n       require(contents[project_address[msg.sender]].permissions==true);\n       address wd = contents[project_address[msg.sender]].contract_address;\n       uint256 num = contents[project_address[msg.sender]].demand;\n       a(wd,num);\n       wd.transfer(num);\n       contents[project_address[msg.sender]].permissions=false;\n    }\n\n    function profit() public payable {\n\n    }\n\n    function Share_out_bonus(){\n        uint256 balance =  balances[msg.sender];\n        uint256 share_out_bonus = this.balance/balance;//??\n        msg.sender.transfer(share_out_bonus);\n    }\n\n\n    function retbal()public view returns(uint256)\n    {\n       return  this.balance;\n    }\n\n    function contents_length()public view returns(uint){\n\n        return contents.length;\n    }\n\n    function totalSupply() constant public returns(uint){\n        return totalsupply;\n }\n\n function balanceOf(address _owner) constant public returns(uint){\n  return balances[_owner];\n }\n\n // don't allow transfers before the required wait-time\n // and don't allow transfers to this contract addr, it'll just kill tokens\n function transfer(address _to, uint256 _value) public returns (bool success){\n  require(balances[msg.sender] >= _value\n   && contributionTime[msg.sender] + WAITTIMEUNTILWITHDRAWORTRANSFER <= block.timestamp\n   && _to != address(this)\n   && _to != address(0));\n\n  // safely subtract\n  balances[msg.sender] = SafeMath.sub(balances[msg.sender], _value);\n  balances[_to] = SafeMath.add(balances[_to], _value);\n\n  // log event\n  emit Transfer(msg.sender, _to, _value);\n  return true;\n }\n\n // don't allow transfers before the required wait-time\n // and don't allow transfers to the contract addr, it'll just kill tokens\n function transferFrom(address _from, address _to, uint _value) public returns(bool){\n  require(allowed[_from][msg.sender] >= _value\n   && balances[_from] >= _value\n   && contributionTime[_from] + WAITTIMEUNTILWITHDRAWORTRANSFER <= block.timestamp\n   && _to != address(this)\n   && _to != address(0));\n\n  // safely add to _to and subtract from _from, and subtract from allowed balances.\n  balances[_to] = SafeMath.add(balances[_to], _value);\n     balances[_from] = SafeMath.sub(balances[_from], _value);\n    allowed[_from][msg.sender] = SafeMath.sub(allowed[_from][msg.sender], _value);\n\n    // log event\n  emit Transfer(_from, _to, _value);\n  return true;\n\n }\n\n function approve(address _spender, uint _value) public returns(bool){\n\n  allowed[msg.sender][_spender] = _value;\n  emit Approval(msg.sender, _spender, _value);\n  // log event\n  return true;\n }\n\n function allowance(address _owner, address _spender) constant public returns(uint){\n  return allowed[_owner][_spender];\n }\n\n}\n\n\n\n\n/**\n * @title SafeMath//SafeMath\n * @dev Math operations with safety checks that throw on error\n */\nlibrary SafeMath {\n\n/**\n* @dev Multiplies two numbers, throws on overflow.\n*/\nfunction mul(uint256 a, uint256 b) internal pure returns (uint256) {\n if (a == 0) {\n   return 0;\n }\n uint256 c = a * b;\n assert(c / a == b);\n return c;\n}\n\n/**\n* @dev Integer division of two numbers, truncating the quotient.\n*/\nfunction div(uint256 a, uint256 b) internal pure returns (uint256) {\n // assert(b > 0); // Solidity automatically throws when dividing by 0\n uint256 c = a / b;\n // assert(a == b * c + a % b); // There is no case in which this doesn't hold\n return c;\n}\n\n/**\n* @dev Substracts two numbers, throws on overflow (i.e. if subtrahend is greater than minuend).\n*/\nfunction sub(uint256 a, uint256 b) internal pure returns (uint256) {\n assert(b <= a);\n return a - b;\n}\n\n/**\n* @dev Adds two numbers, throws on overflow.\n*/\nfunction add(uint256 a, uint256 b) internal pure returns (uint256) {\n uint256 c = a + b;\n assert(c >= a);\n return c;\n}\n}\n",
  "sourcePath": "/Users/reachain01/Desktop/investment/contracts/SimpleStorage.sol",
  "compiler": {
    "name": "solc",
    "version": "0.4.24+commit.e67f0147.Emscripten.clang"
  },
  "schemaVersion": "2.0.1",
  "updatedAt": "2018-07-17T03:17:19.888Z"
}